{
  "transactions": [
    {
      "hash": "0x04e549a2263eb50da1b04ab2dc3153b0d3c0a05467f58803f18d8a906fcb5558",
      "transactionType": "CALL",
      "contractName": null,
      "contractAddress": "0x89fb0bec5a0110d10c7bec070c0896275a48bad0",
      "function": "grantRouterRole(address)",
      "arguments": [
        "0x46a70eac801FCBd6F6C336dE1F0fBb9E570f17aa"
      ],
      "transaction": {
        "from": "0x46a70eac801fcbd6f6c336de1f0fbb9e570f17aa",
        "to": "0x89fb0bec5a0110d10c7bec070c0896275a48bad0",
        "gas": "0x106ba",
        "value": "0x0",
        "input": "0xb2b816f400000000000000000000000046a70eac801fcbd6f6c336de1f0fbb9e570f17aa",
        "nonce": "0xe",
        "chainId": "0x66eee"
      },
      "additionalContracts": [],
      "isFixedGasLimit": false
    },
    {
      "hash": "0x735d59e21e6f553018f6c2f9f04b66ae57b228d40d15e76932a5c39d34e5a530",
      "transactionType": "CALL",
      "contractName": null,
      "contractAddress": "0x467eb1b4457b7c91f7ab91be6f640c81953cad82",
      "function": "approve(address,uint256)",
      "arguments": [
        "0xFE57ba5ccE4B84D8B434FF5A1b25ec9F0fBD1125",
        "115792089237316195423570985008687907853269984665640564039457584007913129639935"
      ],
      "transaction": {
        "from": "0x46a70eac801fcbd6f6c336de1f0fbb9e570f17aa",
        "to": "0x467eb1b4457b7c91f7ab91be6f640c81953cad82",
        "gas": "0xece6",
        "value": "0x0",
        "input": "0x095ea7b3000000000000000000000000fe57ba5cce4b84d8b434ff5a1b25ec9f0fbd1125ffffffffffffffffffffffffffffffffffffffffffffffffffffffffffffffff",
        "nonce": "0xf",
        "chainId": "0x66eee"
      },
      "additionalContracts": [],
      "isFixedGasLimit": false
    },
    {
      "hash": "0xa25f863903bf008ff0be47d20ec088e5c1a0e9e90b5d3b7bfbc4eb1fb163cac5",
      "transactionType": "CALL",
      "contractName": null,
      "contractAddress": "0x43254bb08c5bb245770fe652ffba675adda52a52",
      "function": "approve(address,uint256)",
      "arguments": [
        "0xFE57ba5ccE4B84D8B434FF5A1b25ec9F0fBD1125",
        "115792089237316195423570985008687907853269984665640564039457584007913129639935"
      ],
      "transaction": {
        "from": "0x46a70eac801fcbd6f6c336de1f0fbb9e570f17aa",
        "to": "0x43254bb08c5bb245770fe652ffba675adda52a52",
        "gas": "0xece6",
        "value": "0x0",
        "input": "0x095ea7b3000000000000000000000000fe57ba5cce4b84d8b434ff5a1b25ec9f0fbd1125ffffffffffffffffffffffffffffffffffffffffffffffffffffffffffffffff",
        "nonce": "0x10",
        "chainId": "0x66eee"
      },
      "additionalContracts": [],
      "isFixedGasLimit": false
    },
    {
      "hash": "0x4c751f85f74d8c4a61b876a01890da6759c37142acda3bc8ffddc69a061bf5d7",
      "transactionType": "CALL",
      "contractName": null,
      "contractAddress": "0x89fb0bec5a0110d10c7bec070c0896275a48bad0",
      "function": "submitOrder((address,uint64,uint8,uint8,int24,uint128,uint128,uint64))",
      "arguments": [
        "(0x46a70eac801FCBd6F6C336dE1F0fBb9E570f17aa, 1, 0, 0, 3000, 2000000000000000000, 1, 1765866057)"
      ],
      "transaction": {
        "from": "0x46a70eac801fcbd6f6c336de1f0fbb9e570f17aa",
        "to": "0x89fb0bec5a0110d10c7bec070c0896275a48bad0",
        "gas": "0x65374",
        "value": "0x0",
        "input": "0xc177387300000000000000000000000046a70eac801fcbd6f6c336de1f0fbb9e570f17aa0000000000000000000000000000000000000000000000000000000000000001000000000000000000000000000000000000000000000000000000000000000000000000000000000000000000000000000000000000000000000000000000000000000000000000000000000000000000000000000000000000000000000bb80000000000000000000000000000000000000000000000001bc16d674ec800000000000000000000000000000000000000000000000000000000000000000001000000000000000000000000000000000000000000000000000000006940fa49",
        "nonce": "0x11",
        "chainId": "0x66eee"
      },
      "additionalContracts": [],
      "isFixedGasLimit": false
    },
    {
      "hash": "0x69c26c8f810bfe83a0805b93b5297a1b33f3ff79df54c3f8f94544566900c229",
      "transactionType": "CALL",
      "contractName": null,
      "contractAddress": "0x89fb0bec5a0110d10c7bec070c0896275a48bad0",
      "function": "submitOrder((address,uint64,uint8,uint8,int24,uint128,uint128,uint64))",
      "arguments": [
        "(0x46a70eac801FCBd6F6C336dE1F0fBb9E570f17aa, 1, 1, 0, 3005, 3000000000000000000, 2, 1765866057)"
      ],
      "transaction": {
        "from": "0x46a70eac801fcbd6f6c336de1f0fbb9e570f17aa",
        "to": "0x89fb0bec5a0110d10c7bec070c0896275a48bad0",
        "gas": "0x4cd84",
        "value": "0x0",
        "input": "0xc177387300000000000000000000000046a70eac801fcbd6f6c336de1f0fbb9e570f17aa0000000000000000000000000000000000000000000000000000000000000001000000000000000000000000000000000000000000000000000000000000000100000000000000000000000000000000000000000000000000000000000000000000000000000000000000000000000000000000000000000000000000000bbd00000000000000000000000000000000000000000000000029a2241af62c00000000000000000000000000000000000000000000000000000000000000000002000000000000000000000000000000000000000000000000000000006940fa49",
        "nonce": "0x12",
        "chainId": "0x66eee"
      },
      "additionalContracts": [],
      "isFixedGasLimit": false
    },
    {
      "hash": "0x1b3b23136d9df51e63c9fe4838bdf7d455eed23d0a5e2ee9372f57b99fdc7647",
      "transactionType": "CALL",
      "contractName": null,
      "contractAddress": "0x89fb0bec5a0110d10c7bec070c0896275a48bad0",
      "function": "submitOrder((address,uint64,uint8,uint8,int24,uint128,uint128,uint64))",
      "arguments": [
        "(0x46a70eac801FCBd6F6C336dE1F0fBb9E570f17aa, 1, 0, 1, 3010, 1000000000000000000, 3, 1765866057)"
      ],
      "transaction": {
        "from": "0x46a70eac801fcbd6f6c336de1f0fbb9e570f17aa",
        "to": "0x89fb0bec5a0110d10c7bec070c0896275a48bad0",
        "gas": "0x52f69",
        "value": "0x0",
        "input": "0xc177387300000000000000000000000046a70eac801fcbd6f6c336de1f0fbb9e570f17aa0000000000000000000000000000000000000000000000000000000000000001000000000000000000000000000000000000000000000000000000000000000000000000000000000000000000000000000000000000000000000000000000010000000000000000000000000000000000000000000000000000000000000bc20000000000000000000000000000000000000000000000000de0b6b3a76400000000000000000000000000000000000000000000000000000000000000000003000000000000000000000000000000000000000000000000000000006940fa49",
        "nonce": "0x13",
        "chainId": "0x66eee"
      },
      "additionalContracts": [],
      "isFixedGasLimit": false
    }
  ],
  "receipts": [
    {
      "status": "0x1",
      "cumulativeGasUsed": "0xc890",
      "logs": [
        {
          "address": "0x89fb0bec5a0110d10c7bec070c0896275a48bad0",
          "topics": [
            "0x2f8788117e7eff1d82e926ec794901d17c78024a50270940304540a733656f0d",
            "0x7a05a596cb0ce7fdea8a1e1ec73be300bdb35097c944ce1897202f7a13122eb2",
            "0x00000000000000000000000046a70eac801fcbd6f6c336de1f0fbb9e570f17aa",
            "0x00000000000000000000000046a70eac801fcbd6f6c336de1f0fbb9e570f17aa"
          ],
          "data": "0x",
          "blockHash": "0xf3572f0d003050f3ae8b8170b028b3e0f8cf1577029763c8fbeefeb34bf2a235",
          "blockNumber": "0xd69e963",
          "blockTimestamp": "0x6940ec4b",
          "transactionHash": "0x04e549a2263eb50da1b04ab2dc3153b0d3c0a05467f58803f18d8a906fcb5558",
          "transactionIndex": "0x1",
          "logIndex": "0x0",
          "removed": false
        }
      ],
      "logsBloom": "0x00000004000000000002000000000000000000000000000002000000000000000000000000000000000000000000000000000000000000000000000000000000000000000000000000000000000000000000000000000000000000800000000000000000000000000000000000000000000000000000000000000000000000040000000000400000000000004000000000000000000000000000000000000000000000000000000000000000000000000000000000000000001004000000000000000000000000000000000000000000000002000000000100000000000000000000000000000000000080000000000000000000000000000000000000000000",
      "type": "0x2",
      "transactionHash": "0x04e549a2263eb50da1b04ab2dc3153b0d3c0a05467f58803f18d8a906fcb5558",
      "transactionIndex": "0x1",
      "blockHash": "0xf3572f0d003050f3ae8b8170b028b3e0f8cf1577029763c8fbeefeb34bf2a235",
      "blockNumber": "0xd69e963",
      "gasUsed": "0xc890",
      "effectiveGasPrice": "0x1317b20",
      "from": "0x46a70eac801fcbd6f6c336de1f0fbb9e570f17aa",
      "to": "0x89fb0bec5a0110d10c7bec070c0896275a48bad0",
      "contractAddress": null,
      "gasUsedForL1": "0x0",
      "l1BlockNumber": "0x965002",
      "timeboosted": false
    },
    {
      "status": "0x1",
      "cumulativeGasUsed": "0xb4bd",
      "logs": [
        {
          "address": "0x467eb1b4457b7c91f7ab91be6f640c81953cad82",
          "topics": [
            "0x8c5be1e5ebec7d5bd14f71427d1e84f3dd0314c0f7b2291e5b200ac8c7c3b925",
            "0x00000000000000000000000046a70eac801fcbd6f6c336de1f0fbb9e570f17aa",
            "0x000000000000000000000000fe57ba5cce4b84d8b434ff5a1b25ec9f0fbd1125"
          ],
          "data": "0xffffffffffffffffffffffffffffffffffffffffffffffffffffffffffffffff",
          "blockHash": "0x8a689d50f35090d75f40927eb0ce84bd6ba43a03f46cc64b294535fda11f1761",
          "blockNumber": "0xd69e968",
          "blockTimestamp": "0x6940ec4c",
          "transactionHash": "0x735d59e21e6f553018f6c2f9f04b66ae57b228d40d15e76932a5c39d34e5a530",
          "transactionIndex": "0x1",
          "logIndex": "0x0",
          "removed": false
        }
      ],
      "logsBloom": "0x00000000000000000000000000000000000000000000000000000000000000002000000000000000000000000000000000000000000000000000000000200000000000000000000000000000000000000000000000000000000000800000000000000000000000000000000000000000000000010000000000000000000000040000000002000000000000004000000000000000000000000000000000000400020000000000000000000000000000000000000000000000000000000000000000000000000000000000000000200000000000000000000000000000000000000010000000000000000000000000000000000000000000000000000100000000",
      "type": "0x2",
      "transactionHash": "0x735d59e21e6f553018f6c2f9f04b66ae57b228d40d15e76932a5c39d34e5a530",
      "transactionIndex": "0x1",
      "blockHash": "0x8a689d50f35090d75f40927eb0ce84bd6ba43a03f46cc64b294535fda11f1761",
      "blockNumber": "0xd69e968",
      "gasUsed": "0xb4bd",
      "effectiveGasPrice": "0x1312d00",
      "from": "0x46a70eac801fcbd6f6c336de1f0fbb9e570f17aa",
      "to": "0x467eb1b4457b7c91f7ab91be6f640c81953cad82",
      "contractAddress": null,
      "gasUsedForL1": "0x0",
      "l1BlockNumber": "0x965002",
      "timeboosted": false
    },
    {
      "status": "0x1",
      "cumulativeGasUsed": "0x16bf5",
      "logs": [
        {
          "address": "0x43254bb08c5bb245770fe652ffba675adda52a52",
          "topics": [
            "0x8c5be1e5ebec7d5bd14f71427d1e84f3dd0314c0f7b2291e5b200ac8c7c3b925",
            "0x00000000000000000000000046a70eac801fcbd6f6c336de1f0fbb9e570f17aa",
            "0x000000000000000000000000fe57ba5cce4b84d8b434ff5a1b25ec9f0fbd1125"
          ],
          "data": "0xffffffffffffffffffffffffffffffffffffffffffffffffffffffffffffffff",
          "blockHash": "0x3d49fd5f6e0a282cf55a94b1b068ce5f2ff1462a8afe2e390cfe78821f53f5c0",
          "blockNumber": "0xd69e96d",
          "blockTimestamp": "0x6940ec4d",
          "transactionHash": "0xa25f863903bf008ff0be47d20ec088e5c1a0e9e90b5d3b7bfbc4eb1fb163cac5",
          "transactionIndex": "0x2",
          "logIndex": "0x1",
          "removed": false
        }
      ],
      "logsBloom": "0x00000000000000000000000000000000000000000000000000000000000000002000000000000000000000000000000000000000000000000000000000200000000000000000000000000000000000000000000000000000000000800000000000000000000000000000000000000000000000010000000000000000000000040000000002000100000000004000000000000000000000000000000000000000020000000000000000000000000000000000000000000000000000000000000400000000000000000000000000000000000000000000000000000000000000000010000004000000000000000000000000000000000000000000000000000000",
      "type": "0x2",
      "transactionHash": "0xa25f863903bf008ff0be47d20ec088e5c1a0e9e90b5d3b7bfbc4eb1fb163cac5",
      "transactionIndex": "0x2",
      "blockHash": "0x3d49fd5f6e0a282cf55a94b1b068ce5f2ff1462a8afe2e390cfe78821f53f5c0",
      "blockNumber": "0xd69e96d",
      "gasUsed": "0xb4bd",
      "effectiveGasPrice": "0x13134d0",
      "from": "0x46a70eac801fcbd6f6c336de1f0fbb9e570f17aa",
      "to": "0x43254bb08c5bb245770fe652ffba675adda52a52",
      "contractAddress": null,
      "gasUsedForL1": "0x0",
      "l1BlockNumber": "0x965002",
      "timeboosted": false
    },
    {
      "status": "0x1",
      "cumulativeGasUsed": "0x6196d",
      "logs": [
        {
          "address": "0x89fb0bec5a0110d10c7bec070c0896275a48bad0",
          "topics": [
            "0x36e35f40c9b37f17359584e90761feb2cded40ac74f5d6b79d110359cf66bf31",
            "0x6cda1064ea380e386e27f696ddf52623bc11f2045781f7c95db52187ae261b85",
            "0x00000000000000000000000046a70eac801fcbd6f6c336de1f0fbb9e570f17aa",
            "0x0000000000000000000000000000000000000000000000000000000000000001"
          ],
          "data": "0x000000000000000000000000000000000000000000000000000000006940ec4f",
          "blockHash": "0xbc2510c9eaa221db7085f08029dc91fbb409f662805c895725ab0b056a38b4ba",
          "blockNumber": "0xd69e972",
          "blockTimestamp": "0x6940ec4f",
          "transactionHash": "0x4c751f85f74d8c4a61b876a01890da6759c37142acda3bc8ffddc69a061bf5d7",
          "transactionIndex": "0x2",
          "logIndex": "0x4",
          "removed": false
        }
      ],
      "logsBloom": "0x00000000000000000002020000000000000000020000000002000000000000000000000000000000000000000000000000000000000000000000000000040000000000000000000000000000000000000000000000040000000000800020000000000000000000000000000000000000000000000000000000000000000000040000000000000004000000004000000000000000000000000000000000000000000000000100000000000000000000000000000000000000000004000000000000000000000000000000000000000000000000000000000000000000000040000000000000000000000000000000000000000000100000000000000000000000",
      "type": "0x2",
      "transactionHash": "0x4c751f85f74d8c4a61b876a01890da6759c37142acda3bc8ffddc69a061bf5d7",
      "transactionIndex": "0x2",
      "blockHash": "0xbc2510c9eaa221db7085f08029dc91fbb409f662805c895725ab0b056a38b4ba",
      "blockNumber": "0xd69e972",
      "gasUsed": "0x45352",
      "effectiveGasPrice": "0x13163b0",
      "from": "0x46a70eac801fcbd6f6c336de1f0fbb9e570f17aa",
      "to": "0x89fb0bec5a0110d10c7bec070c0896275a48bad0",
      "contractAddress": null,
      "gasUsedForL1": "0x0",
      "l1BlockNumber": "0x965002",
      "timeboosted": false
    },
    {
      "status": "0x1",
      "cumulativeGasUsed": "0x45358",
      "logs": [
        {
          "address": "0x89fb0bec5a0110d10c7bec070c0896275a48bad0",
          "topics": [
            "0x36e35f40c9b37f17359584e90761feb2cded40ac74f5d6b79d110359cf66bf31",
            "0x79bd6785a6d05c63b53b5bbe4f7fd0d5792454aff8728283c841e436a5b9e748",
            "0x00000000000000000000000046a70eac801fcbd6f6c336de1f0fbb9e570f17aa",
            "0x0000000000000000000000000000000000000000000000000000000000000001"
          ],
          "data": "0x000000000000000000000000000000000000000000000000000000006940ec50",
          "blockHash": "0xd77bf32029fe8cac0f467d48d4fb2ebc7ef2cf1c81ab6f43f1900c81d854a1d9",
          "blockNumber": "0xd69e978",
          "blockTimestamp": "0x6940ec50",
          "transactionHash": "0x69c26c8f810bfe83a0805b93b5297a1b33f3ff79df54c3f8f94544566900c229",
          "transactionIndex": "0x1",
          "logIndex": "0x0",
          "removed": false
        }
      ],
      "logsBloom": "0x00000000000000000002000000000000000000020000000002000000000000000000000000000000000000000000000000000000000000000000000000040000000000000000000000000000000000000000000000040000000000800020000000000040000000000000000000000000000000000000000000000000000000040000000000000000000000004000000000000000000000000000000000000000000000000000000000000000000000000000000000000000000004000000000000000000000000000000000000000000000000000000000000000000000040000000000000000000000040000000000000000000100000000000000000000000",
      "type": "0x2",
      "transactionHash": "0x69c26c8f810bfe83a0805b93b5297a1b33f3ff79df54c3f8f94544566900c229",
      "transactionIndex": "0x1",
      "blockHash": "0xd77bf32029fe8cac0f467d48d4fb2ebc7ef2cf1c81ab6f43f1900c81d854a1d9",
      "blockNumber": "0xd69e978",
      "gasUsed": "0x45358",
      "effectiveGasPrice": "0x132e280",
      "from": "0x46a70eac801fcbd6f6c336de1f0fbb9e570f17aa",
      "to": "0x89fb0bec5a0110d10c7bec070c0896275a48bad0",
      "contractAddress": null,
      "gasUsedForL1": "0x0",
      "l1BlockNumber": "0x965002",
      "timeboosted": false
    },
    {
      "status": "0x1",
      "cumulativeGasUsed": "0xb2070",
      "logs": [
        {
          "address": "0x89fb0bec5a0110d10c7bec070c0896275a48bad0",
          "topics": [
            "0x36e35f40c9b37f17359584e90761feb2cded40ac74f5d6b79d110359cf66bf31",
            "0xa2a8da424b53abdc92efc06cccf52c14a422aa518018609ab58b4d336a1ca4ec",
            "0x00000000000000000000000046a70eac801fcbd6f6c336de1f0fbb9e570f17aa",
            "0x0000000000000000000000000000000000000000000000000000000000000001"
          ],
          "data": "0x000000000000000000000000000000000000000000000000000000006940ec52",
          "blockHash": "0x80a295e3771ddef9ab9d4aebeddf1bb4eff75922cb777664cd99f85a079291dd",
          "blockNumber": "0xd69e97e",
          "blockTimestamp": "0x6940ec52",
          "transactionHash": "0x1b3b23136d9df51e63c9fe4838bdf7d455eed23d0a5e2ee9372f57b99fdc7647",
          "transactionIndex": "0x2",
          "logIndex": "0x5",
          "removed": false
        }
      ],
      "logsBloom": "0x00000000000000000002000000000000000000020400000002000000000000000000000000000000000000000000000000000000000000000000000000040000000000000000000000000000000000000000000000040000000000800020000000000000000000000000000000000000000000000000000000000000000000040000000000000000000000004000000000000000000000000000000000000000000000000000000000000000000000000000000000000000000024000000000000000000000000000000400000000000000000000000000000000000000040000000000000000000000000000000000000000000100000000000000000000000",
      "type": "0x2",
      "transactionHash": "0x1b3b23136d9df51e63c9fe4838bdf7d455eed23d0a5e2ee9372f57b99fdc7647",
      "transactionIndex": "0x2",
      "blockHash": "0x80a295e3771ddef9ab9d4aebeddf1bb4eff75922cb777664cd99f85a079291dd",
      "blockNumber": "0xd69e97e",
      "gasUsed": "0x4537c",
      "effectiveGasPrice": "0x13207c0",
      "from": "0x46a70eac801fcbd6f6c336de1f0fbb9e570f17aa",
      "to": "0x89fb0bec5a0110d10c7bec070c0896275a48bad0",
      "contractAddress": null,
      "gasUsedForL1": "0x0",
      "l1BlockNumber": "0x965003",
      "timeboosted": false
    }
  ],
  "libraries": [],
  "pending": [],
  "returns": {},
  "timestamp": 1765862482626,
  "chain": 421614,
  "commit": "9df7dd4"
}