{
  "transactions": [
    {
      "hash": "0x2d68f79ac904a646c44880111aec95e160142a3dcf9de33f7afc0664a1913508",
      "transactionType": "CALL",
      "contractName": null,
      "contractAddress": "0x89fb0bec5a0110d10c7bec070c0896275a48bad0",
      "function": "submitOrder((address,uint64,uint8,uint8,int24,uint128,uint128,uint64))",
      "arguments": [
        "(0x46a70eac801FCBd6F6C336dE1F0fBb9E570f17aa, 1, 0, 0, 3000, 5000000000000000000, 1, 1765954335)"
      ],
      "transaction": {
        "from": "0x46a70eac801fcbd6f6c336de1f0fbb9e570f17aa",
        "to": "0x89fb0bec5a0110d10c7bec070c0896275a48bad0",
        "gas": "0x5b0de",
        "value": "0x0",
        "input": "0xc177387300000000000000000000000046a70eac801fcbd6f6c336de1f0fbb9e570f17aa0000000000000000000000000000000000000000000000000000000000000001000000000000000000000000000000000000000000000000000000000000000000000000000000000000000000000000000000000000000000000000000000000000000000000000000000000000000000000000000000000000000000000bb80000000000000000000000000000000000000000000000004563918244f400000000000000000000000000000000000000000000000000000000000000000001000000000000000000000000000000000000000000000000000000006942531f",
        "nonce": "0x1e",
        "chainId": "0x66eee"
      },
      "additionalContracts": [],
      "isFixedGasLimit": false
    },
    {
      "hash": "0xca6006d6be73ed4968642583aeaffc110965f663a91fe839ecbaa6537d278df7",
      "transactionType": "CALL",
      "contractName": null,
      "contractAddress": "0x89fb0bec5a0110d10c7bec070c0896275a48bad0",
      "function": "submitOrder((address,uint64,uint8,uint8,int24,uint128,uint128,uint64))",
      "arguments": [
        "(0x46a70eac801FCBd6F6C336dE1F0fBb9E570f17aa, 1, 1, 0, 3010, 3000000000000000000, 2, 1765954335)"
      ],
      "transaction": {
        "from": "0x46a70eac801fcbd6f6c336de1f0fbb9e570f17aa",
        "to": "0x89fb0bec5a0110d10c7bec070c0896275a48bad0",
        "gas": "0x5b0e6",
        "value": "0x0",
        "input": "0xc177387300000000000000000000000046a70eac801fcbd6f6c336de1f0fbb9e570f17aa0000000000000000000000000000000000000000000000000000000000000001000000000000000000000000000000000000000000000000000000000000000100000000000000000000000000000000000000000000000000000000000000000000000000000000000000000000000000000000000000000000000000000bc200000000000000000000000000000000000000000000000029a2241af62c00000000000000000000000000000000000000000000000000000000000000000002000000000000000000000000000000000000000000000000000000006942531f",
        "nonce": "0x1f",
        "chainId": "0x66eee"
      },
      "additionalContracts": [],
      "isFixedGasLimit": false
    },
    {
      "hash": "0x10c5cd161c0b269f3c217d3ee82bb0e00fe1557aa603b52db91ac2201f12ea58",
      "transactionType": "CALL",
      "contractName": null,
      "contractAddress": "0x89fb0bec5a0110d10c7bec070c0896275a48bad0",
      "function": "submitOrder((address,uint64,uint8,uint8,int24,uint128,uint128,uint64))",
      "arguments": [
        "(0x46a70eac801FCBd6F6C336dE1F0fBb9E570f17aa, 1, 0, 1, 3020, 2000000000000000000, 3, 1765954335)"
      ],
      "transaction": {
        "from": "0x46a70eac801fcbd6f6c336de1f0fbb9e570f17aa",
        "to": "0x89fb0bec5a0110d10c7bec070c0896275a48bad0",
        "gas": "0x5b114",
        "value": "0x0",
        "input": "0xc177387300000000000000000000000046a70eac801fcbd6f6c336de1f0fbb9e570f17aa0000000000000000000000000000000000000000000000000000000000000001000000000000000000000000000000000000000000000000000000000000000000000000000000000000000000000000000000000000000000000000000000010000000000000000000000000000000000000000000000000000000000000bcc0000000000000000000000000000000000000000000000001bc16d674ec800000000000000000000000000000000000000000000000000000000000000000003000000000000000000000000000000000000000000000000000000006942531f",
        "nonce": "0x20",
        "chainId": "0x66eee"
      },
      "additionalContracts": [],
      "isFixedGasLimit": false
    },
    {
      "hash": "0x00fae645e00849766db302f1e26cb4a3251cb16ac3fd7f6492b4366e823fc5b6",
      "transactionType": "CALL",
      "contractName": null,
      "contractAddress": "0x89fb0bec5a0110d10c7bec070c0896275a48bad0",
      "function": "submitOrder((address,uint64,uint8,uint8,int24,uint128,uint128,uint64))",
      "arguments": [
        "(0x46a70eac801FCBd6F6C336dE1F0fBb9E570f17aa, 1, 1, 1, 2990, 1000000000000000000, 4, 1765954335)"
      ],
      "transaction": {
        "from": "0x46a70eac801fcbd6f6c336de1f0fbb9e570f17aa",
        "to": "0x89fb0bec5a0110d10c7bec070c0896275a48bad0",
        "gas": "0x5b0fe",
        "value": "0x0",
        "input": "0xc177387300000000000000000000000046a70eac801fcbd6f6c336de1f0fbb9e570f17aa0000000000000000000000000000000000000000000000000000000000000001000000000000000000000000000000000000000000000000000000000000000100000000000000000000000000000000000000000000000000000000000000010000000000000000000000000000000000000000000000000000000000000bae0000000000000000000000000000000000000000000000000de0b6b3a76400000000000000000000000000000000000000000000000000000000000000000004000000000000000000000000000000000000000000000000000000006942531f",
        "nonce": "0x21",
        "chainId": "0x66eee"
      },
      "additionalContracts": [],
      "isFixedGasLimit": false
    }
  ],
  "receipts": [
    {
      "status": "0x1",
      "cumulativeGasUsed": "0x45352",
      "logs": [
        {
          "address": "0x89fb0bec5a0110d10c7bec070c0896275a48bad0",
          "topics": [
            "0x36e35f40c9b37f17359584e90761feb2cded40ac74f5d6b79d110359cf66bf31",
            "0xde6a4c167a282c68a074f9982d2d4c04fbbe001394fc4d18868782e7901c9104",
            "0x00000000000000000000000046a70eac801fcbd6f6c336de1f0fbb9e570f17aa",
            "0x0000000000000000000000000000000000000000000000000000000000000001"
          ],
          "data": "0x0000000000000000000000000000000000000000000000000000000069424523",
          "blockHash": "0x5b9d2226472dd046a9028624053e621cf87b4687d61862e7bda802095701ecb6",
          "blockNumber": "0xd6e287f",
          "blockTimestamp": "0x69424523",
          "transactionHash": "0x2d68f79ac904a646c44880111aec95e160142a3dcf9de33f7afc0664a1913508",
          "transactionIndex": "0x1",
          "logIndex": "0x0",
          "removed": false
        }
      ],
      "logsBloom": "0x00000000000000000002000000000000000000020000000002000000000000000000000000000000000000000000000000000000000000000000000000040000000000000000000000000000000000000000000000040000000000800020000000000000000000000000000000000000000000000000000000000000000020040000000000000000000000004000000000000000000000000000000000000000000000000000000000000000000000000000000000000008000004000000000000000000000000000000000000000000000000000000000000000000000040000000000000000000000000000000000000000000100000100000000000000000",
      "type": "0x2",
      "transactionHash": "0x2d68f79ac904a646c44880111aec95e160142a3dcf9de33f7afc0664a1913508",
      "transactionIndex": "0x1",
      "blockHash": "0x5b9d2226472dd046a9028624053e621cf87b4687d61862e7bda802095701ecb6",
      "blockNumber": "0xd6e287f",
      "gasUsed": "0x45352",
      "effectiveGasPrice": "0x1312d00",
      "from": "0x46a70eac801fcbd6f6c336de1f0fbb9e570f17aa",
      "to": "0x89fb0bec5a0110d10c7bec070c0896275a48bad0",
      "contractAddress": null,
      "gasUsedForL1": "0x0",
      "l1BlockNumber": "0x966b8d",
      "timeboosted": false
    },
    {
      "status": "0x1",
      "cumulativeGasUsed": "0x45358",
      "logs": [
        {
          "address": "0x89fb0bec5a0110d10c7bec070c0896275a48bad0",
          "topics": [
            "0x36e35f40c9b37f17359584e90761feb2cded40ac74f5d6b79d110359cf66bf31",
            "0x647007a0f0e2983c58dda262f151dc45a434bbaf865196a452e001185443bbb7",
            "0x00000000000000000000000046a70eac801fcbd6f6c336de1f0fbb9e570f17aa",
            "0x0000000000000000000000000000000000000000000000000000000000000001"
          ],
          "data": "0x0000000000000000000000000000000000000000000000000000000069424525",
          "blockHash": "0x8e0e078a6e1b15caa3c43427479718de5c39ab9a2811f163dc21f27e5266789d",
          "blockNumber": "0xd6e2884",
          "blockTimestamp": "0x69424525",
          "transactionHash": "0xca6006d6be73ed4968642583aeaffc110965f663a91fe839ecbaa6537d278df7",
          "transactionIndex": "0x1",
          "logIndex": "0x0",
          "removed": false
        }
      ],
      "logsBloom": "0x00000000000000000002000000000000000000020000000002000000000000000000000000000000000000000000000000000000000000000800000000040000000000000000000000000000000000000000000000040000000000800020000000000000000000000000000000000000000000000000000000000000000000040000000000000000000000004000000000000000000000000000000000002000000000000000000000000000000000000000000000000000000004000000000000000000000000000000000010000000000000000000000000000000000040000000000000000000000000000000000000000000100000000000000000000000",
      "type": "0x2",
      "transactionHash": "0xca6006d6be73ed4968642583aeaffc110965f663a91fe839ecbaa6537d278df7",
      "transactionIndex": "0x1",
      "blockHash": "0x8e0e078a6e1b15caa3c43427479718de5c39ab9a2811f163dc21f27e5266789d",
      "blockNumber": "0xd6e2884",
      "gasUsed": "0x45358",
      "effectiveGasPrice": "0x1312d00",
      "from": "0x46a70eac801fcbd6f6c336de1f0fbb9e570f17aa",
      "to": "0x89fb0bec5a0110d10c7bec070c0896275a48bad0",
      "contractAddress": null,
      "gasUsedForL1": "0x0",
      "l1BlockNumber": "0x966b8d",
      "timeboosted": false
    },
    {
      "status": "0x1",
      "cumulativeGasUsed": "0x4537c",
      "logs": [
        {
          "address": "0x89fb0bec5a0110d10c7bec070c0896275a48bad0",
          "topics": [
            "0x36e35f40c9b37f17359584e90761feb2cded40ac74f5d6b79d110359cf66bf31",
            "0x0324e2e176bccd7a0347a59ee42b76799548938513e73600103f2123638a49ab",
            "0x00000000000000000000000046a70eac801fcbd6f6c336de1f0fbb9e570f17aa",
            "0x0000000000000000000000000000000000000000000000000000000000000001"
          ],
          "data": "0x0000000000000000000000000000000000000000000000000000000069424526",
          "blockHash": "0x35058bfcae15a961b32a03bf352c12537cc23a1d05b71489bc413a315f2864b5",
          "blockNumber": "0xd6e2887",
          "blockTimestamp": "0x69424526",
          "transactionHash": "0x10c5cd161c0b269f3c217d3ee82bb0e00fe1557aa603b52db91ac2201f12ea58",
          "transactionIndex": "0x1",
          "logIndex": "0x0",
          "removed": false
        }
      ],
      "logsBloom": "0x00000000000000000002000000000000000000020000000002200000000000000000000000400000000000000000000000000000000000000000000000040000000000000000000000000000000000000000000000040000000000800020000000000000000000000000000000000000000000000000000000000000000000040000000000000000000000004000000000000000000000000000000000000000001000000000000000000000000000000000000000000000000004000000000000000000000000000000000000000000000000000000000000000000000040000000000000000000000000000000000000000000100000000000000000000000",
      "type": "0x2",
      "transactionHash": "0x10c5cd161c0b269f3c217d3ee82bb0e00fe1557aa603b52db91ac2201f12ea58",
      "transactionIndex": "0x1",
      "blockHash": "0x35058bfcae15a961b32a03bf352c12537cc23a1d05b71489bc413a315f2864b5",
      "blockNumber": "0xd6e2887",
      "gasUsed": "0x4537c",
      "effectiveGasPrice": "0x131a230",
      "from": "0x46a70eac801fcbd6f6c336de1f0fbb9e570f17aa",
      "to": "0x89fb0bec5a0110d10c7bec070c0896275a48bad0",
      "contractAddress": null,
      "gasUsedForL1": "0x0",
      "l1BlockNumber": "0x966b8d",
      "timeboosted": false
    },
    {
      "status": "0x1",
      "cumulativeGasUsed": "0x4536b",
      "logs": [
        {
          "address": "0x89fb0bec5a0110d10c7bec070c0896275a48bad0",
          "topics": [
            "0x36e35f40c9b37f17359584e90761feb2cded40ac74f5d6b79d110359cf66bf31",
            "0x5b95b33810d0a5e9141511e7c0f6eacebe806c22b2adcbd471bdbd2ed4947f01",
            "0x00000000000000000000000046a70eac801fcbd6f6c336de1f0fbb9e570f17aa",
            "0x0000000000000000000000000000000000000000000000000000000000000001"
          ],
          "data": "0x0000000000000000000000000000000000000000000000000000000069424528",
          "blockHash": "0x7106ac6adbe66fa40d57dd3e73506ab1234011d3e53fab7cc81705ee4880a430",
          "blockNumber": "0xd6e288a",
          "blockTimestamp": "0x69424528",
          "transactionHash": "0x00fae645e00849766db302f1e26cb4a3251cb16ac3fd7f6492b4366e823fc5b6",
          "transactionIndex": "0x1",
          "logIndex": "0x0",
          "removed": false
        }
      ],
      "logsBloom": "0x00000000000000000002000000000000000000020000000002000000000000000000000000000000000000000000000000000000000000000000000000040000000000000000000000000000000000000000000000040000000000800020001000000000000000000000000000000000000000000000000000000000000000040000000000002000000000004000000000000000000000000000000000000000000000000000000000000000000000000000000000000000000004000000000000000000000000000000000000000000000000000000000000000000000040000000000000000000000000000000000000000000100000000000000040000000",
      "type": "0x2",
      "transactionHash": "0x00fae645e00849766db302f1e26cb4a3251cb16ac3fd7f6492b4366e823fc5b6",
      "transactionIndex": "0x1",
      "blockHash": "0x7106ac6adbe66fa40d57dd3e73506ab1234011d3e53fab7cc81705ee4880a430",
      "blockNumber": "0xd6e288a",
      "gasUsed": "0x4536b",
      "effectiveGasPrice": "0x1312d00",
      "from": "0x46a70eac801fcbd6f6c336de1f0fbb9e570f17aa",
      "to": "0x89fb0bec5a0110d10c7bec070c0896275a48bad0",
      "contractAddress": null,
      "gasUsedForL1": "0x0",
      "l1BlockNumber": "0x966b8f",
      "timeboosted": false
    }
  ],
  "libraries": [],
  "pending": [],
  "returns": {},
  "timestamp": 1765950760756,
  "chain": 421614,
  "commit": "9df7dd4"
}