{
  "transactions": [
    {
      "hash": "0x0544d2498b8e1f05efb7461f6a4bf0b4311aec4229fd917b982b2e4a7e2bbae7",
      "transactionType": "CALL",
      "contractName": null,
      "contractAddress": "0x89fb0bec5a0110d10c7bec070c0896275a48bad0",
      "function": "submitOrder((address,uint64,uint8,uint8,int24,uint128,uint128,uint64))",
      "arguments": [
        "(0x46a70eac801FCBd6F6C336dE1F0fBb9E570f17aa, 1, 0, 0, 3000, 5000000000000000000, 1, 1765954233)"
      ],
      "transaction": {
        "from": "0x46a70eac801fcbd6f6c336de1f0fbb9e570f17aa",
        "to": "0x89fb0bec5a0110d10c7bec070c0896275a48bad0",
        "gas": "0x5b0de",
        "value": "0x0",
        "input": "0xc177387300000000000000000000000046a70eac801fcbd6f6c336de1f0fbb9e570f17aa0000000000000000000000000000000000000000000000000000000000000001000000000000000000000000000000000000000000000000000000000000000000000000000000000000000000000000000000000000000000000000000000000000000000000000000000000000000000000000000000000000000000000bb80000000000000000000000000000000000000000000000004563918244f40000000000000000000000000000000000000000000000000000000000000000000100000000000000000000000000000000000000000000000000000000694252b9",
        "nonce": "0x1a",
        "chainId": "0x66eee"
      },
      "additionalContracts": [],
      "isFixedGasLimit": false
    },
    {
      "hash": "0x4f82b117fe538b2fac99abfc56297a2afb3dd5eade1fcfeba686997550791965",
      "transactionType": "CALL",
      "contractName": null,
      "contractAddress": "0x89fb0bec5a0110d10c7bec070c0896275a48bad0",
      "function": "submitOrder((address,uint64,uint8,uint8,int24,uint128,uint128,uint64))",
      "arguments": [
        "(0x46a70eac801FCBd6F6C336dE1F0fBb9E570f17aa, 1, 1, 0, 3010, 3000000000000000000, 2, 1765954233)"
      ],
      "transaction": {
        "from": "0x46a70eac801fcbd6f6c336de1f0fbb9e570f17aa",
        "to": "0x89fb0bec5a0110d10c7bec070c0896275a48bad0",
        "gas": "0x5b0e6",
        "value": "0x0",
        "input": "0xc177387300000000000000000000000046a70eac801fcbd6f6c336de1f0fbb9e570f17aa0000000000000000000000000000000000000000000000000000000000000001000000000000000000000000000000000000000000000000000000000000000100000000000000000000000000000000000000000000000000000000000000000000000000000000000000000000000000000000000000000000000000000bc200000000000000000000000000000000000000000000000029a2241af62c0000000000000000000000000000000000000000000000000000000000000000000200000000000000000000000000000000000000000000000000000000694252b9",
        "nonce": "0x1b",
        "chainId": "0x66eee"
      },
      "additionalContracts": [],
      "isFixedGasLimit": false
    },
    {
      "hash": "0x2035effcb23b5bdd7551c45c1eb7def0c0c6930c88e380f62365ad3cdf277378",
      "transactionType": "CALL",
      "contractName": null,
      "contractAddress": "0x89fb0bec5a0110d10c7bec070c0896275a48bad0",
      "function": "submitOrder((address,uint64,uint8,uint8,int24,uint128,uint128,uint64))",
      "arguments": [
        "(0x46a70eac801FCBd6F6C336dE1F0fBb9E570f17aa, 1, 0, 1, 3020, 2000000000000000000, 3, 1765954233)"
      ],
      "transaction": {
        "from": "0x46a70eac801fcbd6f6c336de1f0fbb9e570f17aa",
        "to": "0x89fb0bec5a0110d10c7bec070c0896275a48bad0",
        "gas": "0x5b114",
        "value": "0x0",
        "input": "0xc177387300000000000000000000000046a70eac801fcbd6f6c336de1f0fbb9e570f17aa0000000000000000000000000000000000000000000000000000000000000001000000000000000000000000000000000000000000000000000000000000000000000000000000000000000000000000000000000000000000000000000000010000000000000000000000000000000000000000000000000000000000000bcc0000000000000000000000000000000000000000000000001bc16d674ec80000000000000000000000000000000000000000000000000000000000000000000300000000000000000000000000000000000000000000000000000000694252b9",
        "nonce": "0x1c",
        "chainId": "0x66eee"
      },
      "additionalContracts": [],
      "isFixedGasLimit": false
    },
    {
      "hash": "0x22cf601b2fc811e3b7288487c53a3b04a81f7f7e1fd6b926b56283ea409dd291",
      "transactionType": "CALL",
      "contractName": null,
      "contractAddress": "0x89fb0bec5a0110d10c7bec070c0896275a48bad0",
      "function": "submitOrder((address,uint64,uint8,uint8,int24,uint128,uint128,uint64))",
      "arguments": [
        "(0x46a70eac801FCBd6F6C336dE1F0fBb9E570f17aa, 1, 1, 1, 2990, 1000000000000000000, 4, 1765954233)"
      ],
      "transaction": {
        "from": "0x46a70eac801fcbd6f6c336de1f0fbb9e570f17aa",
        "to": "0x89fb0bec5a0110d10c7bec070c0896275a48bad0",
        "gas": "0x5b0fe",
        "value": "0x0",
        "input": "0xc177387300000000000000000000000046a70eac801fcbd6f6c336de1f0fbb9e570f17aa0000000000000000000000000000000000000000000000000000000000000001000000000000000000000000000000000000000000000000000000000000000100000000000000000000000000000000000000000000000000000000000000010000000000000000000000000000000000000000000000000000000000000bae0000000000000000000000000000000000000000000000000de0b6b3a7640000000000000000000000000000000000000000000000000000000000000000000400000000000000000000000000000000000000000000000000000000694252b9",
        "nonce": "0x1d",
        "chainId": "0x66eee"
      },
      "additionalContracts": [],
      "isFixedGasLimit": false
    }
  ],
  "receipts": [
    {
      "status": "0x1",
      "cumulativeGasUsed": "0x45352",
      "logs": [
        {
          "address": "0x89fb0bec5a0110d10c7bec070c0896275a48bad0",
          "topics": [
            "0x36e35f40c9b37f17359584e90761feb2cded40ac74f5d6b79d110359cf66bf31",
            "0x53418745ba5ba74128b289bee843b685bdeda6398ea95d733053ac6ee6a7b20c",
            "0x00000000000000000000000046a70eac801fcbd6f6c336de1f0fbb9e570f17aa",
            "0x0000000000000000000000000000000000000000000000000000000000000001"
          ],
          "data": "0x00000000000000000000000000000000000000000000000000000000694244bd",
          "blockHash": "0xc7b17c3bd07fb113d5359323c60c0825de019ef334b6082b614f3ec865da8c74",
          "blockNumber": "0xd6e277d",
          "blockTimestamp": "0x694244bd",
          "transactionHash": "0x0544d2498b8e1f05efb7461f6a4bf0b4311aec4229fd917b982b2e4a7e2bbae7",
          "transactionIndex": "0x1",
          "logIndex": "0x0",
          "removed": false
        }
      ],
      "logsBloom": "0x00000000000000000002000000000000000000020000000002010000000000000000000000000000000000000000000000000000000000000000000000040000000000000000000000000000000000000000000000040000000000800020000000000000000000000000000000000000000000000000000000000000000000040000000000000000000000004000000004000000000000000000000000000000000000000000000000000000000000000000000000000000002004000000000000000000000000000000000000000000000000000000000000000000000040000000000000000000000000000000000000000000100000000000000000000000",
      "type": "0x2",
      "transactionHash": "0x0544d2498b8e1f05efb7461f6a4bf0b4311aec4229fd917b982b2e4a7e2bbae7",
      "transactionIndex": "0x1",
      "blockHash": "0xc7b17c3bd07fb113d5359323c60c0825de019ef334b6082b614f3ec865da8c74",
      "blockNumber": "0xd6e277d",
      "gasUsed": "0x45352",
      "effectiveGasPrice": "0x13163b0",
      "from": "0x46a70eac801fcbd6f6c336de1f0fbb9e570f17aa",
      "to": "0x89fb0bec5a0110d10c7bec070c0896275a48bad0",
      "contractAddress": null,
      "gasUsedForL1": "0x0",
      "l1BlockNumber": "0x966b86",
      "timeboosted": false
    },
    {
      "status": "0x1",
      "cumulativeGasUsed": "0x45358",
      "logs": [
        {
          "address": "0x89fb0bec5a0110d10c7bec070c0896275a48bad0",
          "topics": [
            "0x36e35f40c9b37f17359584e90761feb2cded40ac74f5d6b79d110359cf66bf31",
            "0xdaad285c2dbcde8611c846719fe07e6a7414d91f80c80cbfe11f6a332f732a59",
            "0x00000000000000000000000046a70eac801fcbd6f6c336de1f0fbb9e570f17aa",
            "0x0000000000000000000000000000000000000000000000000000000000000001"
          ],
          "data": "0x00000000000000000000000000000000000000000000000000000000694244bf",
          "blockHash": "0x3134e1942d55cf4f57528bd496080df548e8bd60454b2ada06098a99fd3a7211",
          "blockNumber": "0xd6e2781",
          "blockTimestamp": "0x694244bf",
          "transactionHash": "0x4f82b117fe538b2fac99abfc56297a2afb3dd5eade1fcfeba686997550791965",
          "transactionIndex": "0x1",
          "logIndex": "0x0",
          "removed": false
        }
      ],
      "logsBloom": "0x00000000000000000002000000000000000000020000000002000000000000000000000000000000000000000000000000000000000000000000000000040000000000000000000000000000000000000000000000040000000000800020000000000000000000000000000000000000000000000000000000000000000000040000000000000000000000004000000000000000000000000000400000000000000000000000000000000000000000000000000000000000000004000000000000000000000000000000000000000000000000000000000000000000000040000000000000000002000000000004000000000000100000000000000000000000",
      "type": "0x2",
      "transactionHash": "0x4f82b117fe538b2fac99abfc56297a2afb3dd5eade1fcfeba686997550791965",
      "transactionIndex": "0x1",
      "blockHash": "0x3134e1942d55cf4f57528bd496080df548e8bd60454b2ada06098a99fd3a7211",
      "blockNumber": "0xd6e2781",
      "gasUsed": "0x45358",
      "effectiveGasPrice": "0x131b1d0",
      "from": "0x46a70eac801fcbd6f6c336de1f0fbb9e570f17aa",
      "to": "0x89fb0bec5a0110d10c7bec070c0896275a48bad0",
      "contractAddress": null,
      "gasUsedForL1": "0x0",
      "l1BlockNumber": "0x966b87",
      "timeboosted": false
    },
    {
      "status": "0x1",
      "cumulativeGasUsed": "0x4537c",
      "logs": [
        {
          "address": "0x89fb0bec5a0110d10c7bec070c0896275a48bad0",
          "topics": [
            "0x36e35f40c9b37f17359584e90761feb2cded40ac74f5d6b79d110359cf66bf31",
            "0xf4a7417df91ed532d40f9375a15e28a70a0a166e6ecf334cf843bc6be84e7d15",
            "0x00000000000000000000000046a70eac801fcbd6f6c336de1f0fbb9e570f17aa",
            "0x0000000000000000000000000000000000000000000000000000000000000001"
          ],
          "data": "0x00000000000000000000000000000000000000000000000000000000694244c0",
          "blockHash": "0x9753599fd57033fc870668305e31cdca754fb7c67b69bb89a1e008ec80203534",
          "blockNumber": "0xd6e2788",
          "blockTimestamp": "0x694244c0",
          "transactionHash": "0x2035effcb23b5bdd7551c45c1eb7def0c0c6930c88e380f62365ad3cdf277378",
          "transactionIndex": "0x1",
          "logIndex": "0x0",
          "removed": false
        }
      ],
      "logsBloom": "0x00000000000000000002000000000000000000020000000002000000000000000200000000000000000000000000000000000000000000000000000000040000000000000000000000000000000000000000000000040000000000800020000000000000000000000000000000000000000000000000000000000000000000040000000000000000000000004000000000000000000000000000000000000000000000000000000000000000000000000000000000010000000004000000000000000000000000000000000000000000000000000000000000000000000040000000000000000000000000000000000000000000100800000000000000000000",
      "type": "0x2",
      "transactionHash": "0x2035effcb23b5bdd7551c45c1eb7def0c0c6930c88e380f62365ad3cdf277378",
      "transactionIndex": "0x1",
      "blockHash": "0x9753599fd57033fc870668305e31cdca754fb7c67b69bb89a1e008ec80203534",
      "blockNumber": "0xd6e2788",
      "gasUsed": "0x4537c",
      "effectiveGasPrice": "0x1326d50",
      "from": "0x46a70eac801fcbd6f6c336de1f0fbb9e570f17aa",
      "to": "0x89fb0bec5a0110d10c7bec070c0896275a48bad0",
      "contractAddress": null,
      "gasUsedForL1": "0x0",
      "l1BlockNumber": "0x966b87",
      "timeboosted": false
    },
    {
      "status": "0x1",
      "cumulativeGasUsed": "0x4536b",
      "logs": [
        {
          "address": "0x89fb0bec5a0110d10c7bec070c0896275a48bad0",
          "topics": [
            "0x36e35f40c9b37f17359584e90761feb2cded40ac74f5d6b79d110359cf66bf31",
            "0x87f465e63c3a65e58d59a79c90632fc0c95155c1416706f48513447f09406d2f",
            "0x00000000000000000000000046a70eac801fcbd6f6c336de1f0fbb9e570f17aa",
            "0x0000000000000000000000000000000000000000000000000000000000000001"
          ],
          "data": "0x00000000000000000000000000000000000000000000000000000000694244c1",
          "blockHash": "0xc75516565012e554350a487152c49392e91d198ac99796e0860d42aa5b2764f3",
          "blockNumber": "0xd6e278d",
          "blockTimestamp": "0x694244c1",
          "transactionHash": "0x22cf601b2fc811e3b7288487c53a3b04a81f7f7e1fd6b926b56283ea409dd291",
          "transactionIndex": "0x1",
          "logIndex": "0x0",
          "removed": false
        }
      ],
      "logsBloom": "0x00000000000000000002000000000000000000020000000002000000000000000000000000000000000000000000000000000000000000000000000000040000000000000000000000000000000000020000000001040000000000800020000000000000000000000000000000000000000000000000000000000000000000040000000000000000000000004000000000000000000000000000000000000000000000000000000000000000000000000000000000000000000004000000000000000000000000000000000000000000000000000000000000000000000040000000000000000000000000008000000000000000100000000000000000000000",
      "type": "0x2",
      "transactionHash": "0x22cf601b2fc811e3b7288487c53a3b04a81f7f7e1fd6b926b56283ea409dd291",
      "transactionIndex": "0x1",
      "blockHash": "0xc75516565012e554350a487152c49392e91d198ac99796e0860d42aa5b2764f3",
      "blockNumber": "0xd6e278d",
      "gasUsed": "0x4536b",
      "effectiveGasPrice": "0x1313ca0",
      "from": "0x46a70eac801fcbd6f6c336de1f0fbb9e570f17aa",
      "to": "0x89fb0bec5a0110d10c7bec070c0896275a48bad0",
      "contractAddress": null,
      "gasUsedForL1": "0x0",
      "l1BlockNumber": "0x966b87",
      "timeboosted": false
    }
  ],
  "libraries": [],
  "pending": [],
  "returns": {},
  "timestamp": 1765950658523,
  "chain": 421614,
  "commit": "9df7dd4"
}