{
  "transactions": [
    {
      "hash": "0xdae98d8ef6d7070b0864da7b7a495b2d673f939258c2ac79881143fef616ff18",
      "transactionType": "CALL",
      "contractName": null,
      "contractAddress": "0x89fb0bec5a0110d10c7bec070c0896275a48bad0",
      "function": "finalizeStep(uint64,uint64,uint256)",
      "arguments": [
        "1",
        "1765862493",
        "100"
      ],
      "transaction": {
        "from": "0x46a70eac801fcbd6f6c336de1f0fbb9e570f17aa",
        "to": "0x89fb0bec5a0110d10c7bec070c0896275a48bad0",
        "gas": "0x148bf",
        "value": "0x0",
        "input": "0x73687e0c0000000000000000000000000000000000000000000000000000000000000001000000000000000000000000000000000000000000000000000000006940ec5d0000000000000000000000000000000000000000000000000000000000000064",
        "nonce": "0x14",
        "chainId": "0x66eee"
      },
      "additionalContracts": [],
      "isFixedGasLimit": false
    },
    {
      "hash": "0x49eac7d2fd8cbe48e679b59d14575e6e0acc4eac9a166a9eea30dfc8b2769b4c",
      "transactionType": "CALL",
      "contractName": null,
      "contractAddress": "0x89fb0bec5a0110d10c7bec070c0896275a48bad0",
      "function": "finalizeStep(uint64,uint64,uint256)",
      "arguments": [
        "1",
        "1765862493",
        "100"
      ],
      "transaction": {
        "from": "0x46a70eac801fcbd6f6c336de1f0fbb9e570f17aa",
        "to": "0x89fb0bec5a0110d10c7bec070c0896275a48bad0",
        "gas": "0x148bf",
        "value": "0x0",
        "input": "0x73687e0c0000000000000000000000000000000000000000000000000000000000000001000000000000000000000000000000000000000000000000000000006940ec5d0000000000000000000000000000000000000000000000000000000000000064",
        "nonce": "0x15",
        "chainId": "0x66eee"
      },
      "additionalContracts": [],
      "isFixedGasLimit": false
    },
    {
      "hash": "0xf30b122b7ee3f604f6395ce5d02ab31360826d82984815ff5e95884334ddc826",
      "transactionType": "CALL",
      "contractName": null,
      "contractAddress": "0x89fb0bec5a0110d10c7bec070c0896275a48bad0",
      "function": "finalizeStep(uint64,uint64,uint256)",
      "arguments": [
        "1",
        "1765862493",
        "100"
      ],
      "transaction": {
        "from": "0x46a70eac801fcbd6f6c336de1f0fbb9e570f17aa",
        "to": "0x89fb0bec5a0110d10c7bec070c0896275a48bad0",
        "gas": "0x148bf",
        "value": "0x0",
        "input": "0x73687e0c0000000000000000000000000000000000000000000000000000000000000001000000000000000000000000000000000000000000000000000000006940ec5d0000000000000000000000000000000000000000000000000000000000000064",
        "nonce": "0x16",
        "chainId": "0x66eee"
      },
      "additionalContracts": [],
      "isFixedGasLimit": false
    },
    {
      "hash": "0xc2746682a319aaaed2863278502eb09ffe962b808d120bcf7565a40a955e8cdf",
      "transactionType": "CALL",
      "contractName": null,
      "contractAddress": "0x89fb0bec5a0110d10c7bec070c0896275a48bad0",
      "function": "finalizeStep(uint64,uint64,uint256)",
      "arguments": [
        "1",
        "1765862493",
        "100"
      ],
      "transaction": {
        "from": "0x46a70eac801fcbd6f6c336de1f0fbb9e570f17aa",
        "to": "0x89fb0bec5a0110d10c7bec070c0896275a48bad0",
        "gas": "0x148bf",
        "value": "0x0",
        "input": "0x73687e0c0000000000000000000000000000000000000000000000000000000000000001000000000000000000000000000000000000000000000000000000006940ec5d0000000000000000000000000000000000000000000000000000000000000064",
        "nonce": "0x17",
        "chainId": "0x66eee"
      },
      "additionalContracts": [],
      "isFixedGasLimit": false
    },
    {
      "hash": "0x54da874236d11fc4dfb0c9f4406135e160afbdffb9e15cff491f6ed335c26675",
      "transactionType": "CALL",
      "contractName": null,
      "contractAddress": "0x89fb0bec5a0110d10c7bec070c0896275a48bad0",
      "function": "finalizeStep(uint64,uint64,uint256)",
      "arguments": [
        "1",
        "1765862493",
        "100"
      ],
      "transaction": {
        "from": "0x46a70eac801fcbd6f6c336de1f0fbb9e570f17aa",
        "to": "0x89fb0bec5a0110d10c7bec070c0896275a48bad0",
        "gas": "0x148bf",
        "value": "0x0",
        "input": "0x73687e0c0000000000000000000000000000000000000000000000000000000000000001000000000000000000000000000000000000000000000000000000006940ec5d0000000000000000000000000000000000000000000000000000000000000064",
        "nonce": "0x18",
        "chainId": "0x66eee"
      },
      "additionalContracts": [],
      "isFixedGasLimit": false
    },
    {
      "hash": "0x4620c23adeca15b9d07b022f7e3832a69dafa774ccf847ff7269f77625259710",
      "transactionType": "CALL",
      "contractName": null,
      "contractAddress": "0x89fb0bec5a0110d10c7bec070c0896275a48bad0",
      "function": "finalizeStep(uint64,uint64,uint256)",
      "arguments": [
        "1",
        "1765862493",
        "100"
      ],
      "transaction": {
        "from": "0x46a70eac801fcbd6f6c336de1f0fbb9e570f17aa",
        "to": "0x89fb0bec5a0110d10c7bec070c0896275a48bad0",
        "gas": "0x148bf",
        "value": "0x0",
        "input": "0x73687e0c0000000000000000000000000000000000000000000000000000000000000001000000000000000000000000000000000000000000000000000000006940ec5d0000000000000000000000000000000000000000000000000000000000000064",
        "nonce": "0x19",
        "chainId": "0x66eee"
      },
      "additionalContracts": [],
      "isFixedGasLimit": false
    }
  ],
  "receipts": [
    {
      "status": "0x1",
      "cumulativeGasUsed": "0xf99e",
      "logs": [
        {
          "address": "0x89fb0bec5a0110d10c7bec070c0896275a48bad0",
          "topics": [
            "0xa4d388b92d58ce7a2afc9d6ede21dcafc0cc004acb716074f004e010914dfb3e",
            "0x0000000000000000000000000000000000000000000000000000000000000001",
            "0x000000000000000000000000000000000000000000000000000000006940ec5d"
          ],
          "data": "0x00000000000000000000000000000000000000000000000000000000000000020000000000000000000000000000000000000000000000000000000000000000",
          "blockHash": "0xb3b78752ad948fd769e45ede46431d3b01a64fd0d009f6c139a1a6d35260fda7",
          "blockNumber": "0xd69e9d9",
          "blockTimestamp": "0x6940ec6c",
          "transactionHash": "0xdae98d8ef6d7070b0864da7b7a495b2d673f939258c2ac79881143fef616ff18",
          "transactionIndex": "0x1",
          "logIndex": "0x0",
          "removed": false
        }
      ],
      "logsBloom": "0x00000000000000000002000000000000000000000000000002000000000000000000000000000000000000000000000000000000000000000000000000040000000000000000000000000000000000000000000002040000000000000000000000004000000000000000000000000000000000000000000000000000000000000000000000000000000000000000000000000010000000000000000000000000000000000000000000000000000000000000000000000000000004000000000000000000000000000000000000000000004000000000000000000000000040000000000000000000000000000000000000000000004000000000000020000000",
      "type": "0x2",
      "transactionHash": "0xdae98d8ef6d7070b0864da7b7a495b2d673f939258c2ac79881143fef616ff18",
      "transactionIndex": "0x1",
      "blockHash": "0xb3b78752ad948fd769e45ede46431d3b01a64fd0d009f6c139a1a6d35260fda7",
      "blockNumber": "0xd69e9d9",
      "gasUsed": "0xf99e",
      "effectiveGasPrice": "0x1316b80",
      "from": "0x46a70eac801fcbd6f6c336de1f0fbb9e570f17aa",
      "to": "0x89fb0bec5a0110d10c7bec070c0896275a48bad0",
      "contractAddress": null,
      "gasUsedForL1": "0x0",
      "l1BlockNumber": "0x965004",
      "timeboosted": false
    },
    {
      "status": "0x1",
      "cumulativeGasUsed": "0xabac",
      "logs": [
        {
          "address": "0x89fb0bec5a0110d10c7bec070c0896275a48bad0",
          "topics": [
            "0xa4d388b92d58ce7a2afc9d6ede21dcafc0cc004acb716074f004e010914dfb3e",
            "0x0000000000000000000000000000000000000000000000000000000000000001",
            "0x000000000000000000000000000000000000000000000000000000006940ec5d"
          ],
          "data": "0x00000000000000000000000000000000000000000000000000000000000000030000000000000000000000000000000000000000000000000000000000000000",
          "blockHash": "0xe88ab05d6e940b11c612efb24b0ad55030599a0c923e4820941eaf8aab039f1d",
          "blockNumber": "0xd69e9df",
          "blockTimestamp": "0x6940ec6e",
          "transactionHash": "0x49eac7d2fd8cbe48e679b59d14575e6e0acc4eac9a166a9eea30dfc8b2769b4c",
          "transactionIndex": "0x1",
          "logIndex": "0x0",
          "removed": false
        }
      ],
      "logsBloom": "0x00000000000000000002000000000000000000000000000002000000000000000000000000000000000000000000000000000000000000000000000000040000000000000000000000000000000000000000000002040000000000000000000000004000000000000000000000000000000000000000000000000000000000000000000000000000000000000000000000000010000000000000000000000000000000000000000000000000000000000000000000000000000004000000000000000000000000000000000000000000004000000000000000000000000040000000000000000000000000000000000000000000004000000000000020000000",
      "type": "0x2",
      "transactionHash": "0x49eac7d2fd8cbe48e679b59d14575e6e0acc4eac9a166a9eea30dfc8b2769b4c",
      "transactionIndex": "0x1",
      "blockHash": "0xe88ab05d6e940b11c612efb24b0ad55030599a0c923e4820941eaf8aab039f1d",
      "blockNumber": "0xd69e9df",
      "gasUsed": "0xabac",
      "effectiveGasPrice": "0x1312d00",
      "from": "0x46a70eac801fcbd6f6c336de1f0fbb9e570f17aa",
      "to": "0x89fb0bec5a0110d10c7bec070c0896275a48bad0",
      "contractAddress": null,
      "gasUsedForL1": "0x0",
      "l1BlockNumber": "0x965004",
      "timeboosted": false
    },
    {
      "status": "0x1",
      "cumulativeGasUsed": "0xbd19",
      "logs": [
        {
          "address": "0x89fb0bec5a0110d10c7bec070c0896275a48bad0",
          "topics": [
            "0xa4d388b92d58ce7a2afc9d6ede21dcafc0cc004acb716074f004e010914dfb3e",
            "0x0000000000000000000000000000000000000000000000000000000000000001",
            "0x000000000000000000000000000000000000000000000000000000006940ec5d"
          ],
          "data": "0x00000000000000000000000000000000000000000000000000000000000000040000000000000000000000000000000000000000000000000000000000000000",
          "blockHash": "0x22c21e5e2364fdc4267c96db4e3abf1550721f3ca8050e4a8e7bff6f3f5d14e5",
          "blockNumber": "0xd69e9e2",
          "blockTimestamp": "0x6940ec6f",
          "transactionHash": "0xf30b122b7ee3f604f6395ce5d02ab31360826d82984815ff5e95884334ddc826",
          "transactionIndex": "0x1",
          "logIndex": "0x0",
          "removed": false
        }
      ],
      "logsBloom": "0x00000000000000000002000000000000000000000000000002000000000000000000000000000000000000000000000000000000000000000000000000040000000000000000000000000000000000000000000002040000000000000000000000004000000000000000000000000000000000000000000000000000000000000000000000000000000000000000000000000010000000000000000000000000000000000000000000000000000000000000000000000000000004000000000000000000000000000000000000000000004000000000000000000000000040000000000000000000000000000000000000000000004000000000000020000000",
      "type": "0x2",
      "transactionHash": "0xf30b122b7ee3f604f6395ce5d02ab31360826d82984815ff5e95884334ddc826",
      "transactionIndex": "0x1",
      "blockHash": "0x22c21e5e2364fdc4267c96db4e3abf1550721f3ca8050e4a8e7bff6f3f5d14e5",
      "blockNumber": "0xd69e9e2",
      "gasUsed": "0xbd19",
      "effectiveGasPrice": "0x131aa00",
      "from": "0x46a70eac801fcbd6f6c336de1f0fbb9e570f17aa",
      "to": "0x89fb0bec5a0110d10c7bec070c0896275a48bad0",
      "contractAddress": null,
      "gasUsedForL1": "0x0",
      "l1BlockNumber": "0x965004",
      "timeboosted": false
    },
    {
      "status": "0x1",
      "cumulativeGasUsed": "0xb2fc",
      "logs": [
        {
          "address": "0x89fb0bec5a0110d10c7bec070c0896275a48bad0",
          "topics": [
            "0xa4d388b92d58ce7a2afc9d6ede21dcafc0cc004acb716074f004e010914dfb3e",
            "0x0000000000000000000000000000000000000000000000000000000000000001",
            "0x000000000000000000000000000000000000000000000000000000006940ec5d"
          ],
          "data": "0x00000000000000000000000000000000000000000000000000000000000000050000000000000000000000000000000000000000000000000000000000000000",
          "blockHash": "0xc18df95b28d5b025b9de7d6142118575bb94396908a5d4393e0f1bc98d4a4315",
          "blockNumber": "0xd69e9e8",
          "blockTimestamp": "0x6940ec71",
          "transactionHash": "0xc2746682a319aaaed2863278502eb09ffe962b808d120bcf7565a40a955e8cdf",
          "transactionIndex": "0x1",
          "logIndex": "0x0",
          "removed": false
        }
      ],
      "logsBloom": "0x00000000000000000002000000000000000000000000000002000000000000000000000000000000000000000000000000000000000000000000000000040000000000000000000000000000000000000000000002040000000000000000000000004000000000000000000000000000000000000000000000000000000000000000000000000000000000000000000000000010000000000000000000000000000000000000000000000000000000000000000000000000000004000000000000000000000000000000000000000000004000000000000000000000000040000000000000000000000000000000000000000000004000000000000020000000",
      "type": "0x2",
      "transactionHash": "0xc2746682a319aaaed2863278502eb09ffe962b808d120bcf7565a40a955e8cdf",
      "transactionIndex": "0x1",
      "blockHash": "0xc18df95b28d5b025b9de7d6142118575bb94396908a5d4393e0f1bc98d4a4315",
      "blockNumber": "0xd69e9e8",
      "gasUsed": "0xb2fc",
      "effectiveGasPrice": "0x1357a90",
      "from": "0x46a70eac801fcbd6f6c336de1f0fbb9e570f17aa",
      "to": "0x89fb0bec5a0110d10c7bec070c0896275a48bad0",
      "contractAddress": null,
      "gasUsedForL1": "0x0",
      "l1BlockNumber": "0x965006",
      "timeboosted": false
    },
    {
      "status": "0x1",
      "cumulativeGasUsed": "0xb5d0",
      "logs": [
        {
          "address": "0x89fb0bec5a0110d10c7bec070c0896275a48bad0",
          "topics": [
            "0xa4d388b92d58ce7a2afc9d6ede21dcafc0cc004acb716074f004e010914dfb3e",
            "0x0000000000000000000000000000000000000000000000000000000000000001",
            "0x000000000000000000000000000000000000000000000000000000006940ec5d"
          ],
          "data": "0x00000000000000000000000000000000000000000000000000000000000000060000000000000000000000000000000000000000000000000000000000000000",
          "blockHash": "0xc8d3fb29986a34daa9ff56a472d6e30f66d48ea8e26070d40b14c8ea5f57dc28",
          "blockNumber": "0xd69e9ef",
          "blockTimestamp": "0x6940ec72",
          "transactionHash": "0x54da874236d11fc4dfb0c9f4406135e160afbdffb9e15cff491f6ed335c26675",
          "transactionIndex": "0x1",
          "logIndex": "0x0",
          "removed": false
        }
      ],
      "logsBloom": "0x00000000000000000002000000000000000000000000000002000000000000000000000000000000000000000000000000000000000000000000000000040000000000000000000000000000000000000000000002040000000000000000000000004000000000000000000000000000000000000000000000000000000000000000000000000000000000000000000000000010000000000000000000000000000000000000000000000000000000000000000000000000000004000000000000000000000000000000000000000000004000000000000000000000000040000000000000000000000000000000000000000000004000000000000020000000",
      "type": "0x2",
      "transactionHash": "0x54da874236d11fc4dfb0c9f4406135e160afbdffb9e15cff491f6ed335c26675",
      "transactionIndex": "0x1",
      "blockHash": "0xc8d3fb29986a34daa9ff56a472d6e30f66d48ea8e26070d40b14c8ea5f57dc28",
      "blockNumber": "0xd69e9ef",
      "gasUsed": "0xb5d0",
      "effectiveGasPrice": "0x1315410",
      "from": "0x46a70eac801fcbd6f6c336de1f0fbb9e570f17aa",
      "to": "0x89fb0bec5a0110d10c7bec070c0896275a48bad0",
      "contractAddress": null,
      "gasUsedForL1": "0x0",
      "l1BlockNumber": "0x965006",
      "timeboosted": false
    },
    {
      "status": "0x1",
      "cumulativeGasUsed": "0x81c63",
      "logs": [
        {
          "address": "0x89fb0bec5a0110d10c7bec070c0896275a48bad0",
          "topics": [
            "0x8e650616fdd5ab0e8df366142b0f7290a53f1efd02c15b936e518ab556fb0937",
            "0x0000000000000000000000000000000000000000000000000000000000000001",
            "0x000000000000000000000000000000000000000000000000000000006940ec5d"
          ],
          "data": "0x0000000000000000000000000000000000000000000000000000000000000000",
          "blockHash": "0x14c9b2f762dc0dfde7cc44ea396e1fc4b5facfc0c81b9f87c5e7cdaf00bb8b3b",
          "blockNumber": "0xd69e9f5",
          "blockTimestamp": "0x6940ec74",
          "transactionHash": "0x4620c23adeca15b9d07b022f7e3832a69dafa774ccf847ff7269f77625259710",
          "transactionIndex": "0x2",
          "logIndex": "0x5",
          "removed": false
        },
        {
          "address": "0x89fb0bec5a0110d10c7bec070c0896275a48bad0",
          "topics": [
            "0x8e650616fdd5ab0e8df366142b0f7290a53f1efd02c15b936e518ab556fb0937",
            "0x0000000000000000000000000000000000000000000000000000000000000001",
            "0x000000000000000000000000000000000000000000000000000000006940ec5d"
          ],
          "data": "0x0000000000000000000000000000000000000000000000000000000000000001",
          "blockHash": "0x14c9b2f762dc0dfde7cc44ea396e1fc4b5facfc0c81b9f87c5e7cdaf00bb8b3b",
          "blockNumber": "0xd69e9f5",
          "blockTimestamp": "0x6940ec74",
          "transactionHash": "0x4620c23adeca15b9d07b022f7e3832a69dafa774ccf847ff7269f77625259710",
          "transactionIndex": "0x2",
          "logIndex": "0x6",
          "removed": false
        },
        {
          "address": "0x89fb0bec5a0110d10c7bec070c0896275a48bad0",
          "topics": [
            "0xa4d388b92d58ce7a2afc9d6ede21dcafc0cc004acb716074f004e010914dfb3e",
            "0x0000000000000000000000000000000000000000000000000000000000000001",
            "0x000000000000000000000000000000000000000000000000000000006940ec5d"
          ],
          "data": "0x00000000000000000000000000000000000000000000000000000000000000070000000000000000000000000000000000000000000000000000000000000000",
          "blockHash": "0x14c9b2f762dc0dfde7cc44ea396e1fc4b5facfc0c81b9f87c5e7cdaf00bb8b3b",
          "blockNumber": "0xd69e9f5",
          "blockTimestamp": "0x6940ec74",
          "transactionHash": "0x4620c23adeca15b9d07b022f7e3832a69dafa774ccf847ff7269f77625259710",
          "transactionIndex": "0x2",
          "logIndex": "0x7",
          "removed": false
        }
      ],
      "logsBloom": "0x00000000000000000002000000800000000000000000000002000000000000000000000000000000000000000000000000000000800000000000000000040000000000000000000000000000000000000000000002040000000000000000000000004000000000000000000000000000000000000000000000000010000000000000000000000000000000000000000000000010000000000000000000000000000000000000000000000000000000000000000000000000000004000000000000000000000000000000000000000000004000000000000000000000000040000000000000000000000000000000000000000000004000000000000020000000",
      "type": "0x2",
      "transactionHash": "0x4620c23adeca15b9d07b022f7e3832a69dafa774ccf847ff7269f77625259710",
      "transactionIndex": "0x2",
      "blockHash": "0x14c9b2f762dc0dfde7cc44ea396e1fc4b5facfc0c81b9f87c5e7cdaf00bb8b3b",
      "blockNumber": "0xd69e9f5",
      "gasUsed": "0x1c2bb",
      "effectiveGasPrice": "0x1312d00",
      "from": "0x46a70eac801fcbd6f6c336de1f0fbb9e570f17aa",
      "to": "0x89fb0bec5a0110d10c7bec070c0896275a48bad0",
      "contractAddress": null,
      "gasUsedForL1": "0x0",
      "l1BlockNumber": "0x965006",
      "timeboosted": false
    }
  ],
  "libraries": [],
  "pending": [],
  "returns": {},
  "timestamp": 1765862516991,
  "chain": 421614,
  "commit": "9df7dd4"
}